{
  "contractName": "ElectionSystem",
  "abi": [
    {
      "inputs": [],
      "stateMutability": "nonpayable",
      "type": "constructor"
    },
    {
      "anonymous": false,
      "inputs": [
        {
          "indexed": false,
          "internalType": "address",
          "name": "candidateId",
          "type": "address"
        },
        {
          "indexed": false,
          "internalType": "uint256",
          "name": "candidateNum",
          "type": "uint256"
        },
        {
          "indexed": false,
          "internalType": "string",
          "name": "candidateName",
          "type": "string"
        }
      ],
      "name": "Registered",
      "type": "event"
    },
    {
      "anonymous": false,
      "inputs": [
        {
          "indexed": false,
          "internalType": "string",
          "name": "cnicNumber",
          "type": "string"
        },
        {
          "indexed": false,
          "internalType": "string",
          "name": "email",
          "type": "string"
        }
      ],
      "name": "UserLoggedIn",
      "type": "event"
    },
    {
      "anonymous": false,
      "inputs": [
        {
          "indexed": false,
          "internalType": "string",
          "name": "cnicNumber",
          "type": "string"
        }
      ],
      "name": "UserLoggedOut",
      "type": "event"
    },
    {
      "anonymous": false,
      "inputs": [
        {
          "indexed": false,
          "internalType": "string",
          "name": "cnicNumber",
          "type": "string"
        },
        {
          "indexed": false,
          "internalType": "string",
          "name": "name",
          "type": "string"
        }
      ],
      "name": "UserRegistered",
      "type": "event"
    },
    {
      "anonymous": false,
      "inputs": [
        {
          "indexed": false,
          "internalType": "address",
          "name": "voter",
          "type": "address"
        },
        {
          "indexed": false,
          "internalType": "address",
          "name": "candidate",
          "type": "address"
        }
      ],
      "name": "Voted",
      "type": "event"
    },
    {
      "inputs": [
        {
          "internalType": "uint256",
          "name": "",
          "type": "uint256"
        }
      ],
      "name": "candidates",
      "outputs": [
        {
          "internalType": "address",
          "name": "id",
          "type": "address"
        },
        {
          "internalType": "uint256",
          "name": "voteCount",
          "type": "uint256"
        },
        {
          "internalType": "string",
          "name": "candidateName",
          "type": "string"
        }
      ],
      "stateMutability": "view",
      "type": "function",
      "constant": true
    },
    {
      "inputs": [],
      "name": "candidatesCount",
      "outputs": [
        {
          "internalType": "uint256",
          "name": "",
          "type": "uint256"
        }
      ],
      "stateMutability": "view",
      "type": "function",
      "constant": true
    },
    {
      "inputs": [
        {
          "internalType": "address",
          "name": "",
          "type": "address"
        }
      ],
      "name": "hasVoted",
      "outputs": [
        {
          "internalType": "bool",
          "name": "",
          "type": "bool"
        }
      ],
      "stateMutability": "view",
      "type": "function",
      "constant": true
    },
    {
      "inputs": [
        {
          "internalType": "string",
          "name": "_name",
          "type": "string"
        },
        {
          "internalType": "string",
          "name": "_dateOfBirth",
          "type": "string"
        },
        {
          "internalType": "string",
          "name": "_parentName",
          "type": "string"
        },
        {
          "internalType": "string",
          "name": "_email",
          "type": "string"
        },
        {
          "internalType": "string",
          "name": "_mobileNo",
          "type": "string"
        },
        {
          "internalType": "string",
          "name": "_password",
          "type": "string"
        },
        {
          "internalType": "string",
          "name": "_cnicNumber",
          "type": "string"
        }
      ],
      "name": "registerUser",
      "outputs": [],
      "stateMutability": "nonpayable",
      "type": "function"
    },
    {
      "inputs": [
        {
          "internalType": "string",
          "name": "_email",
          "type": "string"
        },
        {
          "internalType": "string",
          "name": "_password",
          "type": "string"
        }
      ],
      "name": "login",
      "outputs": [
        {
          "internalType": "bool",
          "name": "",
          "type": "bool"
        }
      ],
      "stateMutability": "nonpayable",
      "type": "function"
    },
    {
      "inputs": [
        {
          "internalType": "string",
          "name": "_cnicNumber",
          "type": "string"
        }
      ],
      "name": "logout",
      "outputs": [],
      "stateMutability": "nonpayable",
      "type": "function"
    },
    {
      "inputs": [
        {
          "internalType": "string",
          "name": "_cnicNumber",
          "type": "string"
        }
      ],
      "name": "isUserLoggedIn",
      "outputs": [
        {
          "internalType": "bool",
          "name": "",
          "type": "bool"
        }
      ],
      "stateMutability": "view",
      "type": "function",
      "constant": true
    },
    {
      "inputs": [
        {
          "internalType": "string",
          "name": "_cnicNumber",
          "type": "string"
        }
      ],
      "name": "getUserDetails",
      "outputs": [
        {
          "internalType": "string",
          "name": "",
          "type": "string"
        },
        {
          "internalType": "string",
          "name": "",
          "type": "string"
        },
        {
          "internalType": "string",
          "name": "",
          "type": "string"
        },
        {
          "internalType": "string",
          "name": "",
          "type": "string"
        },
        {
          "internalType": "string",
          "name": "",
          "type": "string"
        }
      ],
      "stateMutability": "view",
      "type": "function",
      "constant": true
    },
    {
      "inputs": [
        {
          "internalType": "string",
          "name": "_email",
          "type": "string"
        }
      ],
      "name": "getUserDetailsByEmail",
      "outputs": [
        {
          "internalType": "string",
          "name": "",
          "type": "string"
        },
        {
          "internalType": "string",
          "name": "",
          "type": "string"
        },
        {
          "internalType": "string",
          "name": "",
          "type": "string"
        },
        {
          "internalType": "string",
          "name": "",
          "type": "string"
        },
        {
          "internalType": "string",
          "name": "",
          "type": "string"
        }
      ],
      "stateMutability": "view",
      "type": "function",
      "constant": true
    },
    {
      "inputs": [
        {
          "internalType": "string",
          "name": "_name",
          "type": "string"
        }
      ],
      "name": "addCandidate",
      "outputs": [],
      "stateMutability": "nonpayable",
      "type": "function"
    },
    {
      "inputs": [
        {
          "internalType": "string",
          "name": "_candidateName",
          "type": "string"
        }
      ],
      "name": "vote",
      "outputs": [],
      "stateMutability": "nonpayable",
      "type": "function"
    },
    {
      "inputs": [],
      "name": "getResults",
      "outputs": [
        {
          "components": [
            {
              "internalType": "address",
              "name": "id",
              "type": "address"
            },
            {
              "internalType": "uint256",
              "name": "voteCount",
              "type": "uint256"
            },
            {
              "internalType": "string",
              "name": "candidateName",
              "type": "string"
            }
          ],
          "internalType": "struct ElectionSystem.Candidate",
          "name": "winner",
          "type": "tuple"
        }
      ],
      "stateMutability": "view",
      "type": "function",
      "constant": true
    },
    {
      "inputs": [
        {
          "internalType": "string",
          "name": "_cnicNumber",
          "type": "string"
        }
      ],
      "name": "hasUserVoted",
      "outputs": [
        {
          "internalType": "bool",
          "name": "",
          "type": "bool"
        }
      ],
      "stateMutability": "view",
      "type": "function",
      "constant": true
    },
    {
      "inputs": [
        {
          "internalType": "uint256",
          "name": "_candidateId",
          "type": "uint256"
        }
      ],
      "name": "getCandidate",
      "outputs": [
        {
          "internalType": "address",
          "name": "",
          "type": "address"
        },
        {
          "internalType": "uint256",
          "name": "",
          "type": "uint256"
        },
        {
          "internalType": "string",
          "name": "",
          "type": "string"
        }
      ],
      "stateMutability": "view",
      "type": "function",
      "constant": true
    },
    {
      "inputs": [],
      "name": "getTotalCandidates",
      "outputs": [
        {
          "internalType": "uint256",
          "name": "",
          "type": "uint256"
        }
      ],
      "stateMutability": "view",
      "type": "function",
      "constant": true
    }
  ],
  "bytecode": "0x608060405234801561001057600080fd5b50612c0a806100206000396000f3fe608060405234801561001057600080fd5b50600436106100f55760003560e01c80634717f97c1161009757806358467dbc1161006657806358467dbc146102a0578063a2d44632146102d0578063e375889514610300578063fc36e15b14610334576100f5565b80634717f97c1461021a5780634ae8af09146102385780634cbee8131461025457806356bd3b5314610270576100f5565b80632d35a8a2116100d35780632d35a8a21461017c5780633477ee2e1461019a57806335b8e820146101cc578063462e91ec146101fe576100f5565b8063085ba074146100fa57806309eef43e1461012e5780630deb56ab1461015e575b600080fd5b610114600480360381019061010f9190611f49565b610350565b60405161012595949392919061272b565b60405180910390f35b61014860048036038101906101439190611f20565b610853565b60405161015591906126b7565b60405180910390f35b610166610873565b604051610173919061293a565b60405180910390f35b61018461087d565b604051610191919061293a565b60405180910390f35b6101b460048036038101906101af919061213c565b610883565b6040516101c393929190612679565b60405180910390f35b6101e660048036038101906101e1919061213c565b610955565b6040516101f593929190612679565b60405180910390f35b61021860048036038101906102139190611f49565b610adc565b005b610222610bec565b60405161022f9190612918565b60405180910390f35b610252600480360381019061024d9190611ff6565b610db1565b005b61026e60048036038101906102699190611f49565b6110e4565b005b61028a60048036038101906102859190611f49565b611232565b60405161029791906126b7565b60405180910390f35b6102ba60048036038101906102b59190611f8a565b6112d5565b6040516102c791906126b7565b60405180910390f35b6102ea60048036038101906102e59190611f49565b611504565b6040516102f791906126b7565b60405180910390f35b61031a60048036038101906103159190611f49565b6115a9565b60405161032b95949392919061272b565b60405180910390f35b61034e60048036038101906103499190611f49565b611b56565b005b6060806060806060856001816040516103699190612622565b908152602001604051809103902060009054906101000a900460ff166103c4576040517f08c379a00000000000000000000000000000000000000000000000000000000081526004016103bb90612818565b60405180910390fd5b600080886040516103d59190612622565b9081526020016040518091039020604051806101200160405290816000820180546103ff90612a8d565b80601f016020809104026020016040519081016040528092919081815260200182805461042b90612a8d565b80156104785780601f1061044d57610100808354040283529160200191610478565b820191906000526020600020905b81548152906001019060200180831161045b57829003601f168201915b5050505050815260200160018201805461049190612a8d565b80601f01602080910402602001604051908101604052809291908181526020018280546104bd90612a8d565b801561050a5780601f106104df5761010080835404028352916020019161050a565b820191906000526020600020905b8154815290600101906020018083116104ed57829003601f168201915b5050505050815260200160028201805461052390612a8d565b80601f016020809104026020016040519081016040528092919081815260200182805461054f90612a8d565b801561059c5780601f106105715761010080835404028352916020019161059c565b820191906000526020600020905b81548152906001019060200180831161057f57829003601f168201915b505050505081526020016003820180546105b590612a8d565b80601f01602080910402602001604051908101604052809291908181526020018280546105e190612a8d565b801561062e5780601f106106035761010080835404028352916020019161062e565b820191906000526020600020905b81548152906001019060200180831161061157829003601f168201915b5050505050815260200160048201805461064790612a8d565b80601f016020809104026020016040519081016040528092919081815260200182805461067390612a8d565b80156106c05780601f10610695576101008083540402835291602001916106c0565b820191906000526020600020905b8154815290600101906020018083116106a357829003601f168201915b505050505081526020016005820180546106d990612a8d565b80601f016020809104026020016040519081016040528092919081815260200182805461070590612a8d565b80156107525780601f1061072757610100808354040283529160200191610752565b820191906000526020600020905b81548152906001019060200180831161073557829003601f168201915b5050505050815260200160068201805461076b90612a8d565b80601f016020809104026020016040519081016040528092919081815260200182805461079790612a8d565b80156107e45780601f106107b9576101008083540402835291602001916107e4565b820191906000526020600020905b8154815290600101906020018083116107c757829003601f168201915b505050505081526020016007820160009054906101000a900460ff161515151581526020016007820160019054906101000a900460ff16151515158152505090508060000151816020015182604001518360600151846080015196509650965096509650505091939590929450565b60056020528060005260406000206000915054906101000a900460ff1681565b6000600654905090565b60065481565b60046020528060005260406000206000915090508060000160009054906101000a900473ffffffffffffffffffffffffffffffffffffffff16908060010154908060020180546108d290612a8d565b80601f01602080910402602001604051908101604052809291908181526020018280546108fe90612a8d565b801561094b5780601f106109205761010080835404028352916020019161094b565b820191906000526020600020905b81548152906001019060200180831161092e57829003601f168201915b5050505050905083565b600080606060008411801561096c57506006548411155b6109ab576040517f08c379a00000000000000000000000000000000000000000000000000000000081526004016109a2906128b8565b60405180910390fd5b6000600460008681526020019081526020016000206040518060600160405290816000820160009054906101000a900473ffffffffffffffffffffffffffffffffffffffff1673ffffffffffffffffffffffffffffffffffffffff1673ffffffffffffffffffffffffffffffffffffffff16815260200160018201548152602001600282018054610a3b90612a8d565b80601f0160208091040260200160405190810160405280929190818152602001828054610a6790612a8d565b8015610ab45780601f10610a8957610100808354040283529160200191610ab4565b820191906000526020600020905b815481529060010190602001808311610a9757829003601f168201915b5050505050815250509050806000015181602001518260400151935093509350509193909250565b60066000815480929190610aef90612abf565b919050555060405180606001604052803373ffffffffffffffffffffffffffffffffffffffff168152602001600081526020018281525060046000600654815260200190815260200160002060008201518160000160006101000a81548173ffffffffffffffffffffffffffffffffffffffff021916908373ffffffffffffffffffffffffffffffffffffffff160217905550602082015181600101556040820151816002019080519060200190610ba8929190611db4565b509050507f6cbc388989dfabc5be9f5fcbe5da02f3df0c392b42fcda0a88fa4bc9d39c12c73360065483604051610be193929190612679565b60405180910390a150565b610bf4611e3a565b600060065411610c39576040517f08c379a0000000000000000000000000000000000000000000000000000000008152600401610c3090612838565b60405180910390fd5b60008080600190505b6006548111610c99578260046000838152602001908152602001600020600101541115610c8657600460008281526020019081526020016000206001015492508091505b8080610c9190612abf565b915050610c42565b50600460008281526020019081526020016000206040518060600160405290816000820160009054906101000a900473ffffffffffffffffffffffffffffffffffffffff1673ffffffffffffffffffffffffffffffffffffffff1673ffffffffffffffffffffffffffffffffffffffff16815260200160018201548152602001600282018054610d2890612a8d565b80601f0160208091040260200160405190810160405280929190818152602001828054610d5490612a8d565b8015610da15780601f10610d7657610100808354040283529160200191610da1565b820191906000526020600020905b815481529060010190602001808311610d8457829003601f168201915b5050505050815250509250505090565b600181604051610dc19190612622565b908152602001604051809103902060009054906101000a900460ff1615610e1d576040517f08c379a0000000000000000000000000000000000000000000000000000000008152600401610e1490612858565b60405180910390fd5b600284604051610e2d9190612622565b908152602001604051809103902060009054906101000a900460ff1615610e89576040517f08c379a0000000000000000000000000000000000000000000000000000000008152600401610e80906128f8565b60405180910390fd5b600060405180610120016040528089815260200188815260200187815260200186815260200185815260200184815260200183815260200160001515815260200160001515815250905080600083604051610ee49190612622565b90815260200160405180910390206000820151816000019080519060200190610f0e929190611db4565b506020820151816001019080519060200190610f2b929190611db4565b506040820151816002019080519060200190610f48929190611db4565b506060820151816003019080519060200190610f65929190611db4565b506080820151816004019080519060200190610f82929190611db4565b5060a0820151816005019080519060200190610f9f929190611db4565b5060c0820151816006019080519060200190610fbc929190611db4565b5060e08201518160070160006101000a81548160ff0219169083151502179055506101008201518160070160016101000a81548160ff021916908315150217905550905050600180836040516110129190612622565b908152602001604051809103902060006101000a81548160ff02191690831515021790555060016002866040516110499190612622565b908152602001604051809103902060006101000a81548160ff0219169083151502179055508160038660405161107f9190612622565b908152602001604051809103902090805190602001906110a0929190611db4565b507f996d7324173609959370942b1ee1b743dc623b3d50459e66c1d55df55e5a9f3782896040516110d29291906126f4565b60405180910390a15050505050505050565b806001816040516110f59190612622565b908152602001604051809103902060009054906101000a900460ff16611150576040517f08c379a000000000000000000000000000000000000000000000000000000000815260040161114790612818565b60405180910390fd5b6000826040516111609190612622565b908152602001604051809103902060070160019054906101000a900460ff166111be576040517f08c379a00000000000000000000000000000000000000000000000000000000081526004016111b590612898565b60405180910390fd5b600080836040516111cf9190612622565b908152602001604051809103902060070160016101000a81548160ff0219169083151502179055507f34ed8fb20d85b6fb0e3319e6d5a3ffdec9605b798082611f73aaab3e4ad7d4308260405161122691906126d2565b60405180910390a15050565b60006001826040516112449190612622565b908152602001604051809103902060009054906101000a900460ff1661129f576040517f08c379a000000000000000000000000000000000000000000000000000000000815260040161129690612818565b60405180910390fd5b6000826040516112af9190612622565b908152602001604051809103902060070160019054906101000a900460ff169050919050565b60006002836040516112e79190612622565b908152602001604051809103902060009054906101000a900460ff16611342576040517f08c379a0000000000000000000000000000000000000000000000000000000008152600401611339906128d8565b60405180910390fd5b60006003846040516113549190612622565b9081526020016040518091039020805461136d90612a8d565b80601f016020809104026020016040519081016040528092919081815260200182805461139990612a8d565b80156113e65780601f106113bb576101008083540402835291602001916113e6565b820191906000526020600020905b8154815290600101906020018083116113c957829003601f168201915b50505050509050600080826040516113fe9190612622565b908152602001604051809103902090508360405160200161141f9190612622565b60405160208183030381529060405280519060200120816005016040516020016114499190612639565b604051602081830303815290604052805190602001201461149f576040517f08c379a000000000000000000000000000000000000000000000000000000000815260040161149690612878565b60405180910390fd5b60018160070160016101000a81548160ff0219169083151502179055507f6d2522b0fa7d67bdab2f9971773f22a4e5f30a3a44cfdb04c82e8ebbd6f51b0e81600601866040516114f09291906127a1565b60405180910390a160019250505092915050565b6000816001816040516115179190612622565b908152602001604051809103902060009054906101000a900460ff16611572576040517f08c379a000000000000000000000000000000000000000000000000000000000815260040161156990612818565b60405180910390fd5b6000836040516115829190612622565b908152602001604051809103902060070160009054906101000a900460ff16915050919050565b60608060608060606002866040516115c19190612622565b908152602001604051809103902060009054906101000a900460ff1661161c576040517f08c379a0000000000000000000000000000000000000000000000000000000008152600401611613906128d8565b60405180910390fd5b600060038760405161162e9190612622565b9081526020016040518091039020805461164790612a8d565b80601f016020809104026020016040519081016040528092919081815260200182805461167390612a8d565b80156116c05780601f10611695576101008083540402835291602001916116c0565b820191906000526020600020905b8154815290600101906020018083116116a357829003601f168201915b50505050509050600080826040516116d89190612622565b90815260200160405180910390206040518061012001604052908160008201805461170290612a8d565b80601f016020809104026020016040519081016040528092919081815260200182805461172e90612a8d565b801561177b5780601f106117505761010080835404028352916020019161177b565b820191906000526020600020905b81548152906001019060200180831161175e57829003601f168201915b5050505050815260200160018201805461179490612a8d565b80601f01602080910402602001604051908101604052809291908181526020018280546117c090612a8d565b801561180d5780601f106117e25761010080835404028352916020019161180d565b820191906000526020600020905b8154815290600101906020018083116117f057829003601f168201915b5050505050815260200160028201805461182690612a8d565b80601f016020809104026020016040519081016040528092919081815260200182805461185290612a8d565b801561189f5780601f106118745761010080835404028352916020019161189f565b820191906000526020600020905b81548152906001019060200180831161188257829003601f168201915b505050505081526020016003820180546118b890612a8d565b80601f01602080910402602001604051908101604052809291908181526020018280546118e490612a8d565b80156119315780601f1061190657610100808354040283529160200191611931565b820191906000526020600020905b81548152906001019060200180831161191457829003601f168201915b5050505050815260200160048201805461194a90612a8d565b80601f016020809104026020016040519081016040528092919081815260200182805461197690612a8d565b80156119c35780601f10611998576101008083540402835291602001916119c3565b820191906000526020600020905b8154815290600101906020018083116119a657829003601f168201915b505050505081526020016005820180546119dc90612a8d565b80601f0160208091040260200160405190810160405280929190818152602001828054611a0890612a8d565b8015611a555780601f10611a2a57610100808354040283529160200191611a55565b820191906000526020600020905b815481529060010190602001808311611a3857829003601f168201915b50505050508152602001600682018054611a6e90612a8d565b80601f0160208091040260200160405190810160405280929190818152602001828054611a9a90612a8d565b8015611ae75780601f10611abc57610100808354040283529160200191611ae7565b820191906000526020600020905b815481529060010190602001808311611aca57829003601f168201915b505050505081526020016007820160009054906101000a900460ff161515151581526020016007820160019054906101000a900460ff16151515158152505090508060000151816020015182604001518360600151846080015196509650965096509650505091939590929450565b600560003373ffffffffffffffffffffffffffffffffffffffff1673ffffffffffffffffffffffffffffffffffffffff16815260200190815260200160002060009054906101000a900460ff1615611be3576040517f08c379a0000000000000000000000000000000000000000000000000000000008152600401611bda906127f8565b60405180910390fd5b600080600190505b6006548111611c785782604051602001611c059190612622565b6040516020818303038152906040528051906020012060046000838152602001908152602001600020600201604051602001611c419190612639565b604051602081830303815290604052805190602001201415611c6557809150611c78565b8080611c7090612abf565b915050611beb565b506000811415611cbd576040517f08c379a0000000000000000000000000000000000000000000000000000000008152600401611cb4906127d8565b60405180910390fd5b6001600560003373ffffffffffffffffffffffffffffffffffffffff1673ffffffffffffffffffffffffffffffffffffffff16815260200190815260200160002060006101000a81548160ff021916908315150217905550600460008281526020019081526020016000206001016000815480929190611d3c90612abf565b91905055507fce0c7a2a940807f7dc2ce7a615c2532e915e6c0ac9a08bc4ed9d515a710a53e2336004600084815260200190815260200160002060000160009054906101000a900473ffffffffffffffffffffffffffffffffffffffff16604051611da8929190612650565b60405180910390a15050565b828054611dc090612a8d565b90600052602060002090601f016020900481019282611de25760008555611e29565b82601f10611dfb57805160ff1916838001178555611e29565b82800160010185558215611e29579182015b82811115611e28578251825591602001919060010190611e0d565b5b509050611e369190611e71565b5090565b6040518060600160405280600073ffffffffffffffffffffffffffffffffffffffff16815260200160008152602001606081525090565b5b80821115611e8a576000816000905550600101611e72565b5090565b6000611ea1611e9c84612986565b612955565b905082815260208101848484011115611eb957600080fd5b611ec4848285612a4b565b509392505050565b600081359050611edb81612ba6565b92915050565b600082601f830112611ef257600080fd5b8135611f02848260208601611e8e565b91505092915050565b600081359050611f1a81612bbd565b92915050565b600060208284031215611f3257600080fd5b6000611f4084828501611ecc565b91505092915050565b600060208284031215611f5b57600080fd5b600082013567ffffffffffffffff811115611f7557600080fd5b611f8184828501611ee1565b91505092915050565b60008060408385031215611f9d57600080fd5b600083013567ffffffffffffffff811115611fb757600080fd5b611fc385828601611ee1565b925050602083013567ffffffffffffffff811115611fe057600080fd5b611fec85828601611ee1565b9150509250929050565b600080600080600080600060e0888a03121561201157600080fd5b600088013567ffffffffffffffff81111561202b57600080fd5b6120378a828b01611ee1565b975050602088013567ffffffffffffffff81111561205457600080fd5b6120608a828b01611ee1565b965050604088013567ffffffffffffffff81111561207d57600080fd5b6120898a828b01611ee1565b955050606088013567ffffffffffffffff8111156120a657600080fd5b6120b28a828b01611ee1565b945050608088013567ffffffffffffffff8111156120cf57600080fd5b6120db8a828b01611ee1565b93505060a088013567ffffffffffffffff8111156120f857600080fd5b6121048a828b01611ee1565b92505060c088013567ffffffffffffffff81111561212157600080fd5b61212d8a828b01611ee1565b91505092959891949750929550565b60006020828403121561214e57600080fd5b600061215c84828501611f0b565b91505092915050565b61216e81612a03565b82525050565b61217d81612a03565b82525050565b61218c81612a15565b82525050565b600061219d826129cb565b6121a781856129d6565b93506121b7818560208601612a5a565b6121c081612b95565b840191505092915050565b60006121d6826129cb565b6121e081856129e7565b93506121f0818560208601612a5a565b6121f981612b95565b840191505092915050565b600061220f826129cb565b61221981856129f8565b9350612229818560208601612a5a565b80840191505092915050565b6000815461224281612a8d565b61224c81866129e7565b945060018216600081146122675760018114612279576122ac565b60ff19831686526020860193506122ac565b612282856129b6565b60005b838110156122a457815481890152600182019150602081019050612285565b808801955050505b50505092915050565b600081546122c281612a8d565b6122cc81866129f8565b945060018216600081146122e757600181146122f85761232b565b60ff1983168652818601935061232b565b612301856129b6565b60005b8381101561232357815481890152600182019150602081019050612304565b838801955050505b50505092915050565b60006123416013836129e7565b91507f43616e646964617465206e6f7420666f756e64000000000000000000000000006000830152602082019050919050565b6000612381600d836129e7565b91507f416c726561647920766f746564000000000000000000000000000000000000006000830152602082019050919050565b60006123c16016836129e7565b91507f55736572206973206e6f742072656769737465726564000000000000000000006000830152602082019050919050565b60006124016018836129e7565b91507f4e6f2063616e64696461746573207265676973746572656400000000000000006000830152602082019050919050565b6000612441601a836129e7565b91507f434e494320697320616c726561647920726567697374657265640000000000006000830152602082019050919050565b60006124816010836129e7565b91507f496e76616c69642070617373776f7264000000000000000000000000000000006000830152602082019050919050565b60006124c16015836129e7565b91507f55736572206973206e6f74206c6f6767656420696e00000000000000000000006000830152602082019050919050565b60006125016014836129e7565b91507f496e76616c69642063616e6469646174652049440000000000000000000000006000830152602082019050919050565b60006125416017836129e7565b91507f456d61696c206973206e6f7420726567697374657265640000000000000000006000830152602082019050919050565b6000612581601b836129e7565b91507f456d61696c20697320616c7265616479207265676973746572656400000000006000830152602082019050919050565b60006060830160008301516125cc6000860182612165565b5060208301516125df6020860182612604565b50604083015184820360408601526125f78282612192565b9150508091505092915050565b61260d81612a41565b82525050565b61261c81612a41565b82525050565b600061262e8284612204565b915081905092915050565b600061264582846122b5565b915081905092915050565b60006040820190506126656000830185612174565b6126726020830184612174565b9392505050565b600060608201905061268e6000830186612174565b61269b6020830185612613565b81810360408301526126ad81846121cb565b9050949350505050565b60006020820190506126cc6000830184612183565b92915050565b600060208201905081810360008301526126ec81846121cb565b905092915050565b6000604082019050818103600083015261270e81856121cb565b9050818103602083015261272281846121cb565b90509392505050565b600060a082019050818103600083015261274581886121cb565b9050818103602083015261275981876121cb565b9050818103604083015261276d81866121cb565b9050818103606083015261278181856121cb565b9050818103608083015261279581846121cb565b90509695505050505050565b600060408201905081810360008301526127bb8185612235565b905081810360208301526127cf81846121cb565b90509392505050565b600060208201905081810360008301526127f181612334565b9050919050565b6000602082019050818103600083015261281181612374565b9050919050565b60006020820190508181036000830152612831816123b4565b9050919050565b60006020820190508181036000830152612851816123f4565b9050919050565b6000602082019050818103600083015261287181612434565b9050919050565b6000602082019050818103600083015261289181612474565b9050919050565b600060208201905081810360008301526128b1816124b4565b9050919050565b600060208201905081810360008301526128d1816124f4565b9050919050565b600060208201905081810360008301526128f181612534565b9050919050565b6000602082019050818103600083015261291181612574565b9050919050565b6000602082019050818103600083015261293281846125b4565b905092915050565b600060208201905061294f6000830184612613565b92915050565b6000604051905081810181811067ffffffffffffffff8211171561297c5761297b612b66565b5b8060405250919050565b600067ffffffffffffffff8211156129a1576129a0612b66565b5b601f19601f8301169050602081019050919050565b60008190508160005260206000209050919050565b600081519050919050565b600082825260208201905092915050565b600082825260208201905092915050565b600081905092915050565b6000612a0e82612a21565b9050919050565b60008115159050919050565b600073ffffffffffffffffffffffffffffffffffffffff82169050919050565b6000819050919050565b82818337600083830152505050565b60005b83811015612a78578082015181840152602081019050612a5d565b83811115612a87576000848401525b50505050565b60006002820490506001821680612aa557607f821691505b60208210811415612ab957612ab8612b37565b5b50919050565b6000612aca82612a41565b91507fffffffffffffffffffffffffffffffffffffffffffffffffffffffffffffffff821415612afd57612afc612b08565b5b600182019050919050565b7f4e487b7100000000000000000000000000000000000000000000000000000000600052601160045260246000fd5b7f4e487b7100000000000000000000000000000000000000000000000000000000600052602260045260246000fd5b7f4e487b7100000000000000000000000000000000000000000000000000000000600052604160045260246000fd5b6000601f19601f8301169050919050565b612baf81612a03565b8114612bba57600080fd5b50565b612bc681612a41565b8114612bd157600080fd5b5056fea26469706673582212205118f1c2d6856a5f804b665bc256daf9da0dfcb59a0eaa97cbd4582d90f61c8764736f6c63430008000033",
  "immutableReferences": {},
  "source": "// SPDX-License-Identifier: MIT\r\npragma solidity ^0.8.0;\r\n\r\ncontract ElectionSystem {\r\n    struct Candidate {\r\n        address id;\r\n        uint256 voteCount;\r\n        string candidateName;\r\n    }\r\n\r\n    struct User {\r\n        string name;\r\n        string dateOfBirth;\r\n        string parentName;\r\n        string email;\r\n        string mobileNo;\r\n        string password;\r\n        string cnicNumber;\r\n        bool hasVoted;\r\n        bool isLoggedIn;\r\n    }\r\n\r\n    // Events\r\n    event UserRegistered(string cnicNumber, string name);\r\n    event UserLoggedIn(string cnicNumber, string email);\r\n    event UserLoggedOut(string cnicNumber);\r\n    event Registered(address candidateId, uint256 candidateNum, string candidateName);\r\n    event Voted(address voter, address candidate);\r\n\r\n    // Mappings\r\n    mapping(string => User) private usersByCnic;\r\n    mapping(string => bool) private registeredCnic;\r\n    mapping(string => bool) private registeredEmail;\r\n    mapping(string => string) private emailToCnic; \r\n    mapping(uint256 => Candidate) public candidates;\r\n    mapping(address => bool) public hasVoted;\r\n    uint256 public candidatesCount;\r\n\r\n    // Modifiers\r\n    modifier onlyRegisteredUser(string memory _cnicNumber) {\r\n        require(registeredCnic[_cnicNumber], \"User is not registered\");\r\n        _;\r\n    }\r\n\r\n    modifier onlyLoggedInUser(string memory _cnicNumber) {\r\n        require(usersByCnic[_cnicNumber].isLoggedIn, \"User must be logged in\");\r\n        _;\r\n    }\r\n\r\n    // Constructor\r\n    constructor() {}\r\n\r\n    // User Registration and Authentication Functions\r\n    function registerUser(\r\n        string memory _name,\r\n        string memory _dateOfBirth,\r\n        string memory _parentName,\r\n        string memory _email,\r\n        string memory _mobileNo,\r\n        string memory _password,\r\n        string memory _cnicNumber\r\n    ) public {\r\n        require(!registeredCnic[_cnicNumber], \"CNIC is already registered\");\r\n        require(!registeredEmail[_email], \"Email is already registered\");\r\n\r\n        User memory newUser = User({\r\n            name: _name,\r\n            dateOfBirth: _dateOfBirth,\r\n            parentName: _parentName,\r\n            email: _email,\r\n            mobileNo: _mobileNo,\r\n            password: _password,\r\n            cnicNumber: _cnicNumber,\r\n            hasVoted: false,\r\n            isLoggedIn: false\r\n        });\r\n\r\n        usersByCnic[_cnicNumber] = newUser;\r\n        registeredCnic[_cnicNumber] = true;\r\n        registeredEmail[_email] = true;\r\n        emailToCnic[_email] = _cnicNumber;\r\n\r\n        emit UserRegistered(_cnicNumber, _name);\r\n    }\r\n\r\n    function login(string memory _email, string memory _password) public returns (bool) {\r\n        require(registeredEmail[_email], \"Email is not registered\");\r\n        \r\n        string memory userCnic = emailToCnic[_email];\r\n        User storage user = usersByCnic[userCnic];\r\n        \r\n        require(keccak256(abi.encodePacked(user.password)) == \r\n                keccak256(abi.encodePacked(_password)), \"Invalid password\");\r\n        \r\n        user.isLoggedIn = true;\r\n        emit UserLoggedIn(user.cnicNumber, _email);\r\n        return true;\r\n    }\r\n\r\n    function logout(string memory _cnicNumber) public onlyRegisteredUser(_cnicNumber) {\r\n        require(usersByCnic[_cnicNumber].isLoggedIn, \"User is not logged in\");\r\n        usersByCnic[_cnicNumber].isLoggedIn = false;\r\n        emit UserLoggedOut(_cnicNumber);\r\n    }\r\n    \r\n\r\n    // Function to check login status\r\n    function isUserLoggedIn(string memory _cnicNumber) public view returns (bool) {\r\n        require(registeredCnic[_cnicNumber], \"User is not registered\");\r\n        return usersByCnic[_cnicNumber].isLoggedIn;\r\n    }\r\n\r\n    // Function to get user details by CNIC\r\n    function getUserDetails(string memory _cnicNumber) \r\n        public \r\n        view \r\n        onlyRegisteredUser(_cnicNumber) \r\n        returns (\r\n            string memory,\r\n            string memory,\r\n            string memory,\r\n            string memory,\r\n            string memory\r\n        ) \r\n    {\r\n        User memory user = usersByCnic[_cnicNumber];\r\n        return (\r\n            user.name,\r\n            user.dateOfBirth,\r\n            user.parentName,\r\n            user.email,\r\n            user.mobileNo\r\n        );\r\n    }\r\n\r\n    // New function to get user details by email\r\n    function getUserDetailsByEmail(string memory _email) \r\n        public \r\n        view \r\n        returns (\r\n            string memory,\r\n            string memory,\r\n            string memory,\r\n            string memory,\r\n            string memory\r\n        ) \r\n    {\r\n        require(registeredEmail[_email], \"Email is not registered\");\r\n        string memory userCnic = emailToCnic[_email];\r\n        User memory user = usersByCnic[userCnic];\r\n        \r\n        return (\r\n            user.name,\r\n            user.dateOfBirth,\r\n            user.parentName,\r\n            user.email,\r\n            user.mobileNo\r\n        );\r\n    }\r\n\r\n    // Voting System Functions\r\n    function addCandidate(string memory _name) public {\r\n        candidatesCount++;\r\n        candidates[candidatesCount] = Candidate(msg.sender, 0, _name);\r\n        emit Registered(msg.sender, candidatesCount, _name);\r\n    }\r\n\r\n    function vote(string memory _candidateName) public {\r\n        require(!hasVoted[msg.sender], \"Already voted\");\r\n\r\n        uint256 candidateId = 0;\r\n\r\n        for (uint256 i = 1; i <= candidatesCount; i++) {\r\n            if (keccak256(abi.encodePacked(candidates[i].candidateName)) == keccak256(abi.encodePacked(_candidateName))) {\r\n                candidateId = i;\r\n                break;\r\n            }\r\n        }\r\n\r\n        require(candidateId != 0, \"Candidate not found\");\r\n\r\n        hasVoted[msg.sender] = true;\r\n        candidates[candidateId].voteCount++;\r\n\r\n        emit Voted(msg.sender, candidates[candidateId].id);\r\n    }\r\n\r\n    function getResults() public view returns (Candidate memory winner) {\r\n        require(candidatesCount > 0, \"No candidates registered\");\r\n        \r\n        uint256 maxVotes = 0;\r\n        uint256 winningCandidate;\r\n\r\n        for (uint256 i = 1; i <= candidatesCount; i++) {\r\n            if (candidates[i].voteCount > maxVotes) {\r\n                maxVotes = candidates[i].voteCount;\r\n                winningCandidate = i;\r\n            }\r\n        }\r\n\r\n        return candidates[winningCandidate];\r\n    }\r\n\r\n    // Helper Functions\r\n    function hasUserVoted(string memory _cnicNumber) \r\n        public \r\n        view \r\n        onlyRegisteredUser(_cnicNumber) \r\n        returns (bool) \r\n    {\r\n        return usersByCnic[_cnicNumber].hasVoted;\r\n    }\r\n\r\n    // Function to get candidate details\r\n    function getCandidate(uint256 _candidateId) public view returns (\r\n        address,\r\n        uint256,\r\n        string memory\r\n    ) {\r\n        require(_candidateId > 0 && _candidateId <= candidatesCount, \"Invalid candidate ID\");\r\n        Candidate memory candidate = candidates[_candidateId];\r\n        return (candidate.id, candidate.voteCount, candidate.candidateName);\r\n    }\r\n\r\n    // Function to get total number of candidates\r\n    function getTotalCandidates() public view returns (uint256) {\r\n        return candidatesCount;\r\n    }\r\n}\r\n",
  "sourcePath": "D:\\Decentralized Voting System using Blockchain For TSA\\my-contract\\contracts\\MyContract.sol",
  "compiler": {
    "name": "solc",
    "version": "0.8.0+commit.c7dfd78e.Emscripten.clang"
  },
  "schemaVersion": "3.4.16",
  "updatedAt": "2024-11-07T06:44:35.169Z",
  "networkType": "ethereum",
  "devdoc": {
    "kind": "dev",
    "methods": {},
    "version": 1
  },
  "userdoc": {
    "kind": "user",
    "methods": {},
    "version": 1
  }
}